{
  "contractName": "KofNMultisig",
  "abi": [
    {
      "inputs": [
        {
          "name": "wallets",
          "type": "address[]"
        }
      ],
      "payable": false,
      "stateMutability": "nonpayable",
      "type": "constructor"
    },
    {
      "payable": true,
      "stateMutability": "payable",
      "type": "fallback"
    },
    {
      "constant": false,
      "inputs": [
        {
          "name": "target",
          "type": "address"
        }
      ],
      "name": "sendChallenge",
      "outputs": [],
      "payable": true,
      "stateMutability": "payable",
      "type": "function"
    },
    {
      "constant": false,
      "inputs": [],
      "name": "respondToChallenge",
      "outputs": [],
      "payable": false,
      "stateMutability": "nonpayable",
      "type": "function"
    },
    {
      "constant": false,
      "inputs": [],
      "name": "tryToRemoveChallengedUser",
      "outputs": [],
      "payable": false,
      "stateMutability": "nonpayable",
      "type": "function"
    },
    {
      "constant": false,
      "inputs": [
        {
          "name": "amount",
          "type": "uint256"
        },
        {
          "name": "to",
          "type": "address"
        }
      ],
      "name": "requestPayment",
      "outputs": [],
      "payable": false,
      "stateMutability": "nonpayable",
      "type": "function"
    },
    {
      "constant": false,
      "inputs": [
        {
          "name": "txId",
          "type": "uint256"
        }
      ],
      "name": "approvePayment",
      "outputs": [],
      "payable": false,
      "stateMutability": "nonpayable",
      "type": "function"
    },
    {
      "constant": false,
      "inputs": [
        {
          "name": "amount",
          "type": "uint256"
        },
        {
          "name": "to",
          "type": "address"
        }
      ],
      "name": "makePayment",
      "outputs": [],
      "payable": false,
      "stateMutability": "nonpayable",
      "type": "function"
    },
    {
      "constant": true,
      "inputs": [],
      "name": "getK",
      "outputs": [
        {
          "name": "",
          "type": "uint256"
        }
      ],
      "payable": false,
      "stateMutability": "view",
      "type": "function"
    },
    {
      "constant": true,
      "inputs": [
        {
          "name": "userAddress",
          "type": "address"
        }
      ],
      "name": "getUserWallet",
      "outputs": [
        {
          "name": "",
          "type": "address"
        }
      ],
      "payable": false,
      "stateMutability": "view",
      "type": "function"
    },
    {
      "constant": true,
      "inputs": [
        {
          "name": "userAddress",
          "type": "address"
        }
      ],
      "name": "getUserInGroup",
      "outputs": [
        {
          "name": "",
          "type": "bool"
        }
      ],
      "payable": false,
      "stateMutability": "view",
      "type": "function"
    },
    {
      "constant": true,
      "inputs": [
        {
          "name": "userAddress",
          "type": "address"
        }
      ],
      "name": "getUserChallenged",
      "outputs": [
        {
          "name": "",
          "type": "bool"
        }
      ],
      "payable": false,
      "stateMutability": "view",
      "type": "function"
    },
    {
      "constant": true,
      "inputs": [
        {
          "name": "userAddress",
          "type": "address"
        }
      ],
      "name": "getUserLastChallengeBlock",
      "outputs": [
        {
          "name": "",
          "type": "uint256"
        }
      ],
      "payable": false,
      "stateMutability": "view",
      "type": "function"
    },
    {
      "constant": true,
      "inputs": [],
      "name": "getChallengeIsActive",
      "outputs": [
        {
          "name": "",
          "type": "bool"
        }
      ],
      "payable": false,
      "stateMutability": "view",
      "type": "function"
    },
    {
      "constant": true,
      "inputs": [],
      "name": "getChallengeSender",
      "outputs": [
        {
          "name": "",
          "type": "address"
        }
      ],
      "payable": false,
      "stateMutability": "view",
      "type": "function"
    },
    {
      "constant": true,
      "inputs": [],
      "name": "getChallengeTarget",
      "outputs": [
        {
          "name": "",
          "type": "address"
        }
      ],
      "payable": false,
      "stateMutability": "view",
      "type": "function"
    },
    {
      "constant": true,
      "inputs": [],
      "name": "getChallengeStartBlock",
      "outputs": [
        {
          "name": "",
          "type": "uint256"
        }
      ],
      "payable": false,
      "stateMutability": "view",
      "type": "function"
    },
    {
      "constant": true,
      "inputs": [
        {
          "name": "txId",
          "type": "uint256"
        }
      ],
      "name": "getTransactionId",
      "outputs": [
        {
          "name": "",
          "type": "uint256"
        }
      ],
      "payable": false,
      "stateMutability": "view",
      "type": "function"
    },
    {
      "constant": true,
      "inputs": [
        {
          "name": "txId",
          "type": "uint256"
        }
      ],
      "name": "getTransactionReceiver",
      "outputs": [
        {
          "name": "",
          "type": "address"
        }
      ],
      "payable": false,
      "stateMutability": "view",
      "type": "function"
    },
    {
      "constant": true,
      "inputs": [
        {
          "name": "txId",
          "type": "uint256"
        }
      ],
      "name": "getTransactionAmountToTransfer",
      "outputs": [
        {
          "name": "",
          "type": "uint256"
        }
      ],
      "payable": false,
      "stateMutability": "view",
      "type": "function"
    },
    {
      "constant": true,
      "inputs": [
        {
          "name": "txId",
          "type": "uint256"
        }
      ],
      "name": "getTransactionCount",
      "outputs": [
        {
          "name": "",
          "type": "uint256"
        }
      ],
      "payable": false,
      "stateMutability": "view",
      "type": "function"
    },
    {
      "constant": true,
      "inputs": [
        {
          "name": "txId",
          "type": "uint256"
        },
        {
          "name": "userAddress",
          "type": "address"
        }
      ],
      "name": "getTransactionUsersApprove",
      "outputs": [
        {
          "name": "",
          "type": "bool"
        }
      ],
      "payable": false,
      "stateMutability": "view",
      "type": "function"
    },
    {
      "constant": true,
      "inputs": [],
      "name": "getPenaltyWallet",
      "outputs": [
        {
          "name": "",
          "type": "address"
        }
      ],
      "payable": false,
      "stateMutability": "view",
      "type": "function"
    },
    {
      "constant": true,
      "inputs": [],
      "name": "getNumberOfTransactions",
      "outputs": [
        {
          "name": "",
          "type": "uint256"
        }
      ],
      "payable": false,
      "stateMutability": "view",
      "type": "function"
    }
  ],
  "bytecode": "0x60806040526014600055603260015534801561001a57600080fd5b50604051611fdf380380611fdf8339810180604052810190808051820192919050505060008082511115156100dd576040517f08c379a00000000000000000000000000000000000000000000000000000000081526004018080602001828103825260218152602001807f546865726520617265206e6f206d656d6265727320696e207468652067726f7581526020017f700000000000000000000000000000000000000000000000000000000000000081525060400191505060405180910390fd5b8151600281905550600090505b815181101561024057608060405190810160405280838381518110151561010d57fe5b9060200190602002015173ffffffffffffffffffffffffffffffffffffffff168152602001600115158152602001600015158152602001600081525060036000848481518110151561015b57fe5b9060200190602002015173ffffffffffffffffffffffffffffffffffffffff1673ffffffffffffffffffffffffffffffffffffffff16815260200190815260200160002060008201518160000160006101000a81548173ffffffffffffffffffffffffffffffffffffffff021916908373ffffffffffffffffffffffffffffffffffffffff16021790555060208201518160000160146101000a81548160ff02191690831515021790555060408201518160000160156101000a81548160ff0219169083151502179055506060820151816001015590505080806001019150506100ea565b608060405190810160405280600015158152602001600073ffffffffffffffffffffffffffffffffffffffff168152602001600073ffffffffffffffffffffffffffffffffffffffff1681526020016000815250600460008201518160000160006101000a81548160ff02191690831515021790555060208201518160000160016101000a81548173ffffffffffffffffffffffffffffffffffffffff021916908373ffffffffffffffffffffffffffffffffffffffff16021790555060408201518160010160006101000a81548173ffffffffffffffffffffffffffffffffffffffff021916908373ffffffffffffffffffffffffffffffffffffffff160217905550606082015181600201559050507356c509f889a8b6950a77d0e4d8a252d2a805a74d600860006101000a81548173ffffffffffffffffffffffffffffffffffffffff021916908373ffffffffffffffffffffffffffffffffffffffff16021790555060006009819055505050611c20806103bf6000396000f300608060405260043610610128576000357c0100000000000000000000000000000000000000000000000000000000900463ffffffff16806308cc1f971461012a57806315a050671461018557806324ba506d146101c657806327e1951b146101f15780632d667bd51461024857806330f125ab146102ad5780633de5d0de146102c457806352e61b25146103055780635fd5dd6d146103725780636812bcc61461038957806369391039146103b45780636e6c2524146103f5578063792754e31461044c5780637ff74381146104825780638f1f10bf146104cf57806390432902146105265780639ad5479314610581578063a723bf7114610604578063be40e7a914610651578063c0c7427b146106a8578063de14c818146106d7578063ee39e7a014610704575b005b34801561013657600080fd5b5061016b600480360381019080803573ffffffffffffffffffffffffffffffffffffffff16906020019092919050505061072f565b604051808215151515815260200191505060405180910390f35b34801561019157600080fd5b506101b060048036038101908080359060200190929190505050610788565b6040518082815260200191505060405180910390f35b3480156101d257600080fd5b506101db6107a8565b6040518082815260200191505060405180910390f35b3480156101fd57600080fd5b506102066107b2565b604051808273ffffffffffffffffffffffffffffffffffffffff1673ffffffffffffffffffffffffffffffffffffffff16815260200191505060405180910390f35b34801561025457600080fd5b5061029360048036038101908080359060200190929190803573ffffffffffffffffffffffffffffffffffffffff1690602001909291905050506107df565b604051808215151515815260200191505060405180910390f35b3480156102b957600080fd5b506102c261084a565b005b3480156102d057600080fd5b506102ef60048036038101908080359060200190929190505050610a30565b6040518082815260200191505060405180910390f35b34801561031157600080fd5b5061033060048036038101908080359060200190929190505050610a50565b604051808273ffffffffffffffffffffffffffffffffffffffff1673ffffffffffffffffffffffffffffffffffffffff16815260200191505060405180910390f35b34801561037e57600080fd5b50610387610a90565b005b34801561039557600080fd5b5061039e610de9565b6040518082815260200191505060405180910390f35b3480156103c057600080fd5b506103df60048036038101908080359060200190929190505050610df6565b6040518082815260200191505060405180910390f35b34801561040157600080fd5b50610436600480360381019080803573ffffffffffffffffffffffffffffffffffffffff169060200190929190505050610e16565b6040518082815260200191505060405180910390f35b610480600480360381019080803573ffffffffffffffffffffffffffffffffffffffff169060200190929190505050610e62565b005b34801561048e57600080fd5b506104cd60048036038101908080359060200190929190803573ffffffffffffffffffffffffffffffffffffffff16906020019092919050505061145b565b005b3480156104db57600080fd5b506104e46114a6565b604051808273ffffffffffffffffffffffffffffffffffffffff1673ffffffffffffffffffffffffffffffffffffffff16815260200191505060405180910390f35b34801561053257600080fd5b50610567600480360381019080803573ffffffffffffffffffffffffffffffffffffffff1690602001909291905050506114d3565b604051808215151515815260200191505060405180910390f35b34801561058d57600080fd5b506105c2600480360381019080803573ffffffffffffffffffffffffffffffffffffffff16906020019092919050505061152c565b604051808273ffffffffffffffffffffffffffffffffffffffff1673ffffffffffffffffffffffffffffffffffffffff16815260200191505060405180910390f35b34801561061057600080fd5b5061064f60048036038101908080359060200190929190803573ffffffffffffffffffffffffffffffffffffffff169060200190929190505050611598565b005b34801561065d57600080fd5b5061066661183d565b604051808273ffffffffffffffffffffffffffffffffffffffff1673ffffffffffffffffffffffffffffffffffffffff16815260200191505060405180910390f35b3480156106b457600080fd5b506106bd611867565b604051808215151515815260200191505060405180910390f35b3480156106e357600080fd5b5061070260048036038101908080359060200190929190505050611881565b005b34801561071057600080fd5b50610719611a72565b6040518082815260200191505060405180910390f35b6000600360008373ffffffffffffffffffffffffffffffffffffffff1673ffffffffffffffffffffffffffffffffffffffff16815260200190815260200160002060000160149054906101000a900460ff169050919050565b600060076000838152602001908152602001600020600001549050919050565b6000600954905090565b6000600460010160009054906101000a900473ffffffffffffffffffffffffffffffffffffffff16905090565b60006007600084815260200190815260200160002060040160008373ffffffffffffffffffffffffffffffffffffffff1673ffffffffffffffffffffffffffffffffffffffff16815260200190815260200160002060009054906101000a900460ff16905092915050565b60011515600460000160009054906101000a900460ff1615151415156108d8576040517f08c379a00000000000000000000000000000000000000000000000000000000081526004018080602001828103825260158152602001807f5468657265206973206e6f206368616c6c656e6765000000000000000000000081525060200191505060405180910390fd5b6001151560036000600460010160009054906101000a900473ffffffffffffffffffffffffffffffffffffffff1673ffffffffffffffffffffffffffffffffffffffff1673ffffffffffffffffffffffffffffffffffffffff16815260200190815260200160002060000160149054906101000a900460ff1615151415156109ee576040517f08c379a00000000000000000000000000000000000000000000000000000000081526004018080602001828103825260278152602001807f546865207573657220616c72656164792072656d6f7665642066726f6d20746881526020017f652067726f75700000000000000000000000000000000000000000000000000081525060400191505060405180910390fd5b60005460046002015443031115610a2e57610a2d600460010160009054906101000a900473ffffffffffffffffffffffffffffffffffffffff16611a7c565b5b565b600060076000838152602001908152602001600020600301549050919050565b60006007600083815260200190815260200160002060010160009054906101000a900473ffffffffffffffffffffffffffffffffffffffff169050919050565b60011515600460000160009054906101000a900460ff161515141515610b1e576040517f08c379a00000000000000000000000000000000000000000000000000000000081526004018080602001828103825260158152602001807f5468657265206973206e6f206368616c6c656e6765000000000000000000000081525060200191505060405180910390fd5b600460010160009054906101000a900473ffffffffffffffffffffffffffffffffffffffff1673ffffffffffffffffffffffffffffffffffffffff163373ffffffffffffffffffffffffffffffffffffffff16141515610c0c576040517f08c379a00000000000000000000000000000000000000000000000000000000081526004018080602001828103825260408152602001807f596f7520617265206e6f742074686520746172676574206f662074686520636881526020017f616c6c656e67652e20596f752063616e277420726573706f6e6420746f20697481525060400191505060405180910390fd5b60011515600360003373ffffffffffffffffffffffffffffffffffffffff1673ffffffffffffffffffffffffffffffffffffffff16815260200190815260200160002060000160149054906101000a900460ff161515141515610cfd576040517f08c379a00000000000000000000000000000000000000000000000000000000081526004018080602001828103825260288152602001807f596f752077616974656420746f6f206c6f6e6720746f20726573706f6e642e2081526020017f536f727279203a2800000000000000000000000000000000000000000000000081525060400191505060405180910390fd5b6000600360003373ffffffffffffffffffffffffffffffffffffffff1673ffffffffffffffffffffffffffffffffffffffff16815260200190815260200160002060000160156101000a81548160ff0219169083151502179055506000600460000160006101000a81548160ff021916908315150217905550600860009054906101000a900473ffffffffffffffffffffffffffffffffffffffff1673ffffffffffffffffffffffffffffffffffffffff166108fc67016345785d8a00009081150290604051600060405180830381858888f19350505050158015610de6573d6000803e3d6000fd5b50565b6000600460020154905090565b600060076000838152602001908152602001600020600201549050919050565b6000600360008373ffffffffffffffffffffffffffffffffffffffff1673ffffffffffffffffffffffffffffffffffffffff168152602001908152602001600020600101549050919050565b6000600360003373ffffffffffffffffffffffffffffffffffffffff1673ffffffffffffffffffffffffffffffffffffffff16815260200190815260200160002060000160009054906101000a900473ffffffffffffffffffffffffffffffffffffffff1673ffffffffffffffffffffffffffffffffffffffff1614151515610f53576040517f08c379a000000000000000000000000000000000000000000000000000000000815260040180806020018281038252601d8152602001807f596f7520646f6e27742062656c6f6e6720746f207468652067726f757000000081525060200191505060405180910390fd5b60001515600460000160009054906101000a900460ff161515141515611007576040517f08c379a00000000000000000000000000000000000000000000000000000000081526004018080602001828103825260268152602001807f546865726520697320616c72656164792061207075626c69736865642063686181526020017f6c6c656e6765000000000000000000000000000000000000000000000000000081525060400191505060405180910390fd5b67016345785d8a000034101515156110ad576040517f08c379a000000000000000000000000000000000000000000000000000000000815260040180806020018281038252602e8152602001807f596f7520646f6e2774206861766520656e6f756768206d6f6e657920746f207081526020017f6179207468652070656e616c747900000000000000000000000000000000000081525060400191505060405180910390fd5b6000600360008373ffffffffffffffffffffffffffffffffffffffff1673ffffffffffffffffffffffffffffffffffffffff16815260200190815260200160002060000160009054906101000a900473ffffffffffffffffffffffffffffffffffffffff1673ffffffffffffffffffffffffffffffffffffffff16141515156111c4576040517f08c379a00000000000000000000000000000000000000000000000000000000081526004018080602001828103825260278152602001807f596f75722074617267657420646f65736e27742062656c6f6e6720746f20746881526020017f652067726f75700000000000000000000000000000000000000000000000000081525060400191505060405180910390fd5b600154600360003373ffffffffffffffffffffffffffffffffffffffff1673ffffffffffffffffffffffffffffffffffffffff168152602001908152602001600020600101544303101515156112a8576040517f08c379a00000000000000000000000000000000000000000000000000000000081526004018080602001828103825260358152602001807f596f752061726520626c6f636b65642066726f6d2073656e64696e672061206381526020017f68616c6c656e67652e20706c656173652077616974000000000000000000000081525060400191505060405180910390fd5b6080604051908101604052806001151581526020013373ffffffffffffffffffffffffffffffffffffffff1681526020018273ffffffffffffffffffffffffffffffffffffffff16815260200143815250600460008201518160000160006101000a81548160ff02191690831515021790555060208201518160000160016101000a81548173ffffffffffffffffffffffffffffffffffffffff021916908373ffffffffffffffffffffffffffffffffffffffff16021790555060408201518160010160006101000a81548173ffffffffffffffffffffffffffffffffffffffff021916908373ffffffffffffffffffffffffffffffffffffffff1602179055506060820151816002015590505043600360003373ffffffffffffffffffffffffffffffffffffffff1673ffffffffffffffffffffffffffffffffffffffff168152602001908152602001600020600101819055506001600360008373ffffffffffffffffffffffffffffffffffffffff1673ffffffffffffffffffffffffffffffffffffffff16815260200190815260200160002060000160156101000a81548160ff02191690831515021790555050565b8073ffffffffffffffffffffffffffffffffffffffff166108fc839081150290604051600060405180830381858888f193505050501580156114a1573d6000803e3d6000fd5b505050565b6000600460000160019054906101000a900473ffffffffffffffffffffffffffffffffffffffff16905090565b6000600360008373ffffffffffffffffffffffffffffffffffffffff1673ffffffffffffffffffffffffffffffffffffffff16815260200190815260200160002060000160159054906101000a900460ff169050919050565b6000600360008373ffffffffffffffffffffffffffffffffffffffff1673ffffffffffffffffffffffffffffffffffffffff16815260200190815260200160002060000160009054906101000a900473ffffffffffffffffffffffffffffffffffffffff169050919050565b60011515600360003373ffffffffffffffffffffffffffffffffffffffff1673ffffffffffffffffffffffffffffffffffffffff16815260200190815260200160002060000160149054906101000a900460ff161515141515611663576040517f08c379a000000000000000000000000000000000000000000000000000000000815260040180806020018281038252601d8152602001807f596f7520646f6e27742062656c6f6e6720746f207468652067726f757000000081525060200191505060405180910390fd5b600082111515611701576040517f08c379a00000000000000000000000000000000000000000000000000000000081526004018080602001828103825260218152602001807f506c656173652061736b20666f72206120706f7373697469766520616d6f756e81526020017f740000000000000000000000000000000000000000000000000000000000000081525060400191505060405180910390fd5b60806040519081016040528060095481526020018273ffffffffffffffffffffffffffffffffffffffff16815260200183815260200160018152506007600060095481526020019081526020016000206000820151816000015560208201518160010160006101000a81548173ffffffffffffffffffffffffffffffffffffffff021916908373ffffffffffffffffffffffffffffffffffffffff1602179055506040820151816002015560608201518160030155905050600160076000600954815260200190815260200160002060040160003373ffffffffffffffffffffffffffffffffffffffff1673ffffffffffffffffffffffffffffffffffffffff16815260200190815260200160002060006101000a81548160ff0219169083151502179055506009600081548092919060010191905055505050565b6000600860009054906101000a900473ffffffffffffffffffffffffffffffffffffffff16905090565b6000600460000160009054906101000a900460ff16905090565b600060011515600360003373ffffffffffffffffffffffffffffffffffffffff1673ffffffffffffffffffffffffffffffffffffffff16815260200190815260200160002060000160149054906101000a900460ff16151514151561194e576040517f08c379a000000000000000000000000000000000000000000000000000000000815260040180806020018281038252601d8152602001807f596f7520646f6e27742062656c6f6e6720746f207468652067726f757000000081525060200191505060405180910390fd5b600760008381526020019081526020016000209050600015158160040160003373ffffffffffffffffffffffffffffffffffffffff1673ffffffffffffffffffffffffffffffffffffffff16815260200190815260200160002060009054906101000a900460ff1615151415611a6e5760018160040160003373ffffffffffffffffffffffffffffffffffffffff1673ffffffffffffffffffffffffffffffffffffffff16815260200190815260200160002060006101000a81548160ff021916908315150217905550806003016000815480929190600101919050555060025481600301541415611a6d57611a6c81600201548260010160009054906101000a900473ffffffffffffffffffffffffffffffffffffffff1661145b565b5b5b5050565b6000600254905090565b6000600254111515611a8a57fe5b6000600360008373ffffffffffffffffffffffffffffffffffffffff1673ffffffffffffffffffffffffffffffffffffffff16815260200190815260200160002060000160146101000a81548160ff02191690831515021790555060026000815480929190600190039190505550600060036000600460000160019054906101000a900473ffffffffffffffffffffffffffffffffffffffff1673ffffffffffffffffffffffffffffffffffffffff1673ffffffffffffffffffffffffffffffffffffffff1681526020019081526020016000206001018190555060006002541415611bf157600860009054906101000a900473ffffffffffffffffffffffffffffffffffffffff1673ffffffffffffffffffffffffffffffffffffffff166108fc3073ffffffffffffffffffffffffffffffffffffffff16319081150290604051600060405180830381858888f19350505050158015611bef573d6000803e3d6000fd5b505b505600a165627a7a72305820a5913eec1f418d85b2d629b021217cd0095e4964be8025aeb8abf585407feeae0029",
  "source": "// Version of solidity compiler this program was written for\npragma solidity ^0.4.24;\n\n//-------------------------- KofNMultisig Contract -------------------------- \ncontract KofNMultisig {\n    \n    // Conatants\n    uint BLOCKS_TO_RESPOND = 20;\n    uint BLOCKS_TO_BLOCK = 50;\n\n    struct Challenge {\n        bool isActive;\n    \taddress sender;\n    \taddress target;\n    \tuint startBlock;\n    }\n  \n    struct Transaction {\n        uint id;\n        address receiver;\t\n        uint amountToTransfer;\n        uint count;\n        //bool[] usersApproves;\n        mapping (address => bool) usersApproves;\n\n    }  \n    struct User {\n    \taddress wallet;\n    \tbool inGroup;\n    \tbool challenged;\n    \tuint lastChallengeBlock;    // the last time this user published a challenge\n    }\n    \n\tuint K;\n\tmapping (address => User) usersInGroup;\n\tChallenge challenge;\n\tmapping (uint => Transaction) ledger;\n\taddress penaltyWallet;\n\tuint numberOfTransactions;\n\t\n\tuint constant penalty = 0.1 ether;  // should be total amount/K\n\t\n\t// Initiliaze KofNMultisig contract\n    constructor(address[] wallets)\n    public\n    {\n        require(wallets.length > 0, \"There are no members in the group\");\n\t    K = wallets.length;\n\t    for(uint i = 0; i < wallets.length ; i++) {\n            usersInGroup[wallets[i]] = User(wallets[i], true, false, 0);\n\t    }\n\t    challenge = Challenge(false, 0, 0, 0);\n\t    penaltyWallet = 0x56C509F889a8B6950a77d0E4D8a252D2a805A74d;   // TBD\n\t    numberOfTransactions = 0;\n\t}\n\t\n\t// Create a new challenge and challenge the user with the address target\n    function sendChallenge(address target)\n\tpayable\n\tpublic\n\t{\n\t\trequire(usersInGroup[msg.sender].wallet != 0, \"You don't belong to the group\");    //same as: require(getUserIndexByAddress(target) != -1)\n\t    require(challenge.isActive == false, \"There is already a published challenge\");\n\t    require(msg.value >= penalty, \"You don't have enough money to pay the penalty\");\n\t    require(usersInGroup[target].wallet != 0, \"Your target doesn't belong to the group\");    //same as: require(getUserIndexByAddress(target) != -1)\n\t    require(block.number - usersInGroup[msg.sender].lastChallengeBlock >= BLOCKS_TO_BLOCK, \"You are blocked from sending a challenge. please wait\");\n\t    \n\t    challenge = Challenge(true, msg.sender, target, block.number);\n\t    usersInGroup[msg.sender].lastChallengeBlock = block.number;\n\t    usersInGroup[target].challenged = true;\n\t}\n\t\n\t// Check if the function caller is the challenger’s target, answer the challenge if yes\t\n\t// and take a fee from the contract wallet\n\tfunction respondToChallenge()\n\tpublic\n\t{\n\t    require(challenge.isActive == true, \"There is no challenge\");\n\t    require(msg.sender == challenge.target, \"You are not the target of the challenge. You can't respond to it\");\n\t    require(usersInGroup[msg.sender].inGroup == true, \"You waited too long to respond. Sorry :(\");\n\t\n        usersInGroup[msg.sender].challenged = false;\n        challenge.isActive = false;\n        \n        // Punish the whole group by taking the penalty\n        penaltyWallet.transfer(penalty);\n\n\t}\n\t\n\t// Called to trigger the removal of the user from the group in case times up\n\tfunction tryToRemoveChallengedUser()\n\tpublic\n\t{\n\t    require(challenge.isActive == true, \"There is no challenge\");\n\t    require(usersInGroup[challenge.target].inGroup == true, \"The user already removed from the group\");\n\t    if(block.number - challenge.startBlock > BLOCKS_TO_RESPOND) {\n\t        _removeFromGroup(challenge.target);\n\t    }\n\t}\n\t\n\t// Removes the user from group, called only when challenge’s times up\n\tfunction _removeFromGroup(address userWallet)\n\tprivate\n\t{\n\t    assert(K > 0);\n\t    \n\t    // remove the challenge target from group and remove the sender block\n        usersInGroup[userWallet].inGroup = false;\n        K--;\n        usersInGroup[challenge.sender].lastChallengeBlock = 0;\n        \n        // if there are no more users in the group - transfer the contract balance to penaltyWallet\n        if(K == 0)\n        penaltyWallet.transfer(address(this).balance);\n\t}\n\t\n\t\n\t// indicates the consent of msg.sender to transfer “amount” to address “to”\n\tfunction requestPayment (uint amount, address to)\n\tpublic\n\t{\n\t    require(usersInGroup[msg.sender].inGroup == true, \"You don't belong to the group\");\n\t    require(amount > 0, \"Please ask for a possitive amount\");\n\t  \n        ledger[numberOfTransactions] = Transaction(numberOfTransactions, to, amount, 1);\n        ledger[numberOfTransactions].usersApproves[msg.sender] = true;\n        numberOfTransactions++;\n\t    \n\t}\n\n    // indicates the msg.sender approve for transaction with the id txid\n    function approvePayment (uint txId)\n    public\n    {\n        require(usersInGroup[msg.sender].inGroup == true, \"You don't belong to the group\");\n        \n        Transaction storage transaction = ledger[txId];\n        if(transaction.usersApproves[msg.sender] == false)  // check if condition is valid\n        {\n            transaction.usersApproves[msg.sender] = true;\n            transaction.count++;\n            if(transaction.count == K)\n            {\n                //ledger[txId] = Transaction(0, 0, 0, 0);\n                makePayment(transaction.amountToTransfer, transaction.receiver);\n            }\n        }\n    }\n\n    // Initiates the transfer, called only when all K users gave their “permission”\n    function makePayment (uint amount, address to)\n    public\n    {\n        to.transfer(amount);\n    }\n    \n    function()\n    public\n    payable\n    {}\n    \n    //-------------------------- KofNMultisig TEST FUNCTIONS ------------------- \n\n    function getK()\n    public\n    view\n    returns (uint)\n    {\n    \treturn K;\n    }\n\n    function getUserWallet(address userAddress)\n    public\n    view\n    returns (address)\n    {\n    \treturn usersInGroup[userAddress].wallet;\n    }\n    \n    function getUserInGroup(address userAddress)\n    public\n    view\n    returns (bool)\n    {\n    \treturn usersInGroup[userAddress].inGroup;\n    }\n\n    function getUserChallenged(address userAddress)\n    public\n    view\n    returns (bool)\n    {\n    \treturn usersInGroup[userAddress].challenged;\n    }\n    \n    function getUserLastChallengeBlock(address userAddress)\n    public\n    view\n    returns (uint)\n    {\n    \treturn usersInGroup[userAddress].lastChallengeBlock;\n    }\n    \n    function getChallengeIsActive()\n    public\n    view\n    returns (bool)\n    {\n    \treturn challenge.isActive;\n    }\n    \n    function getChallengeSender()\n    public\n    view\n    returns (address)\n    {\n    \treturn challenge.sender;\n    }\n    \n    function getChallengeTarget()\n    public\n    view\n    returns (address)\n    {\n    \treturn challenge.target;\n    }\n    \n    function getChallengeStartBlock()\n    public\n    view\n    returns (uint)\n    {\n    \treturn challenge.startBlock;\n    }\n    \n    function getTransactionId(uint txId)\n    public\n    view\n    returns (uint)\n    {\n    \treturn ledger[txId].id;\n    }\n    \n    function getTransactionReceiver(uint txId)\n    public\n    view\n    returns (address)\n    {\n    \treturn ledger[txId].receiver;\n    }\n    \n    function getTransactionAmountToTransfer(uint txId)\n    public\n    view\n    returns (uint)\n    {\n    \treturn ledger[txId].amountToTransfer;\n    }\n    \n    function getTransactionCount(uint txId)\n    public\n    view\n    returns (uint)\n    {\n    \treturn ledger[txId].count;\n    }\n    \n    function getTransactionUsersApprove(uint txId, address userAddress)\n    public\n    view\n    returns (bool)\n    {\n    \treturn ledger[txId].usersApproves[userAddress];\n    }\n    \n    function getPenaltyWallet()\n    public\n    view\n    returns (address)\n    {\n    \treturn penaltyWallet;\n    }\n    \n    function getNumberOfTransactions()\n    public\n    view\n    returns (uint)\n    {\n    \treturn numberOfTransactions;\n    }\n}\n",
  "sourcePath": "/home/projectb/KofN/contracts/KofNMultisig.sol",
  "compiler": {
    "name": "solc",
    "version": "0.4.24+commit.e67f0147.Emscripten.clang"
  },
  "schemaVersion": "2.0.0",
  "updatedAt": "2018-06-12T12:00:30.394Z"
}