{
  "contractName": "MultisigWallet",
  "abi": [
    {
      "constant": true,
      "inputs": [
        {
          "name": "",
          "type": "address"
        }
      ],
      "name": "groups",
      "outputs": [
        {
          "name": "",
          "type": "address"
        }
      ],
      "payable": false,
      "stateMutability": "view",
      "type": "function"
    },
    {
      "anonymous": false,
      "inputs": [
        {
          "indexed": false,
          "name": "newAddress",
          "type": "address"
        }
      ],
      "name": "ContractCreated",
      "type": "event"
    },
    {
      "constant": false,
      "inputs": [
        {
          "name": "wallets",
          "type": "address[]"
        }
      ],
      "name": "addGroup",
      "outputs": [
        {
          "name": "",
          "type": "address"
        }
      ],
      "payable": false,
      "stateMutability": "nonpayable",
      "type": "function"
    }
  ],
  "bytecode": "0x608060405234801561001057600080fd5b506122c4806100206000396000f30060806040526004361061004c576000357c0100000000000000000000000000000000000000000000000000000000900463ffffffff16806363d5e44d14610051578063c18c9885146100d4575b600080fd5b34801561005d57600080fd5b50610092600480360381019080803573ffffffffffffffffffffffffffffffffffffffff16906020019092919050505061017a565b604051808273ffffffffffffffffffffffffffffffffffffffff1673ffffffffffffffffffffffffffffffffffffffff16815260200191505060405180910390f35b3480156100e057600080fd5b50610138600480360381019080803590602001908201803590602001908080602002602001604051908101604052809392919081815260200183836020028082843782019150505050505091929192905050506101ad565b604051808273ffffffffffffffffffffffffffffffffffffffff1673ffffffffffffffffffffffffffffffffffffffff16815260200191505060405180910390f35b60006020528060005260406000206000915054906101000a900473ffffffffffffffffffffffffffffffffffffffff1681565b600080826101b96102a9565b8080602001828103825283818151815260200191508051906020019060200280838360005b838110156101f95780820151818401526020810190506101de565b5050505090500192505050604051809103906000f080158015610220573d6000803e3d6000fd5b509050806000803373ffffffffffffffffffffffffffffffffffffffff1673ffffffffffffffffffffffffffffffffffffffff16815260200190815260200160002060006101000a81548173ffffffffffffffffffffffffffffffffffffffff021916908373ffffffffffffffffffffffffffffffffffffffff16021790555080915050919050565b604051611fdf806102ba83390190560060806040526014600055603260015534801561001a57600080fd5b50604051611fdf380380611fdf8339810180604052810190808051820192919050505060008082511115156100dd576040517f08c379a00000000000000000000000000000000000000000000000000000000081526004018080602001828103825260218152602001807f546865726520617265206e6f206d656d6265727320696e207468652067726f7581526020017f700000000000000000000000000000000000000000000000000000000000000081525060400191505060405180910390fd5b8151600281905550600090505b815181101561024057608060405190810160405280838381518110151561010d57fe5b9060200190602002015173ffffffffffffffffffffffffffffffffffffffff168152602001600115158152602001600015158152602001600081525060036000848481518110151561015b57fe5b9060200190602002015173ffffffffffffffffffffffffffffffffffffffff1673ffffffffffffffffffffffffffffffffffffffff16815260200190815260200160002060008201518160000160006101000a81548173ffffffffffffffffffffffffffffffffffffffff021916908373ffffffffffffffffffffffffffffffffffffffff16021790555060208201518160000160146101000a81548160ff02191690831515021790555060408201518160000160156101000a81548160ff0219169083151502179055506060820151816001015590505080806001019150506100ea565b608060405190810160405280600015158152602001600073ffffffffffffffffffffffffffffffffffffffff168152602001600073ffffffffffffffffffffffffffffffffffffffff1681526020016000815250600460008201518160000160006101000a81548160ff02191690831515021790555060208201518160000160016101000a81548173ffffffffffffffffffffffffffffffffffffffff021916908373ffffffffffffffffffffffffffffffffffffffff16021790555060408201518160010160006101000a81548173ffffffffffffffffffffffffffffffffffffffff021916908373ffffffffffffffffffffffffffffffffffffffff160217905550606082015181600201559050507356c509f889a8b6950a77d0e4d8a252d2a805a74d600860006101000a81548173ffffffffffffffffffffffffffffffffffffffff021916908373ffffffffffffffffffffffffffffffffffffffff16021790555060006009819055505050611c20806103bf6000396000f300608060405260043610610128576000357c0100000000000000000000000000000000000000000000000000000000900463ffffffff16806308cc1f971461012a57806315a050671461018557806324ba506d146101c657806327e1951b146101f15780632d667bd51461024857806330f125ab146102ad5780633de5d0de146102c457806352e61b25146103055780635fd5dd6d146103725780636812bcc61461038957806369391039146103b45780636e6c2524146103f5578063792754e31461044c5780637ff74381146104825780638f1f10bf146104cf57806390432902146105265780639ad5479314610581578063a723bf7114610604578063be40e7a914610651578063c0c7427b146106a8578063de14c818146106d7578063ee39e7a014610704575b005b34801561013657600080fd5b5061016b600480360381019080803573ffffffffffffffffffffffffffffffffffffffff16906020019092919050505061072f565b604051808215151515815260200191505060405180910390f35b34801561019157600080fd5b506101b060048036038101908080359060200190929190505050610788565b6040518082815260200191505060405180910390f35b3480156101d257600080fd5b506101db6107a8565b6040518082815260200191505060405180910390f35b3480156101fd57600080fd5b506102066107b2565b604051808273ffffffffffffffffffffffffffffffffffffffff1673ffffffffffffffffffffffffffffffffffffffff16815260200191505060405180910390f35b34801561025457600080fd5b5061029360048036038101908080359060200190929190803573ffffffffffffffffffffffffffffffffffffffff1690602001909291905050506107df565b604051808215151515815260200191505060405180910390f35b3480156102b957600080fd5b506102c261084a565b005b3480156102d057600080fd5b506102ef60048036038101908080359060200190929190505050610a30565b6040518082815260200191505060405180910390f35b34801561031157600080fd5b5061033060048036038101908080359060200190929190505050610a50565b604051808273ffffffffffffffffffffffffffffffffffffffff1673ffffffffffffffffffffffffffffffffffffffff16815260200191505060405180910390f35b34801561037e57600080fd5b50610387610a90565b005b34801561039557600080fd5b5061039e610de9565b6040518082815260200191505060405180910390f35b3480156103c057600080fd5b506103df60048036038101908080359060200190929190505050610df6565b6040518082815260200191505060405180910390f35b34801561040157600080fd5b50610436600480360381019080803573ffffffffffffffffffffffffffffffffffffffff169060200190929190505050610e16565b6040518082815260200191505060405180910390f35b610480600480360381019080803573ffffffffffffffffffffffffffffffffffffffff169060200190929190505050610e62565b005b34801561048e57600080fd5b506104cd60048036038101908080359060200190929190803573ffffffffffffffffffffffffffffffffffffffff16906020019092919050505061145b565b005b3480156104db57600080fd5b506104e46114a6565b604051808273ffffffffffffffffffffffffffffffffffffffff1673ffffffffffffffffffffffffffffffffffffffff16815260200191505060405180910390f35b34801561053257600080fd5b50610567600480360381019080803573ffffffffffffffffffffffffffffffffffffffff1690602001909291905050506114d3565b604051808215151515815260200191505060405180910390f35b34801561058d57600080fd5b506105c2600480360381019080803573ffffffffffffffffffffffffffffffffffffffff16906020019092919050505061152c565b604051808273ffffffffffffffffffffffffffffffffffffffff1673ffffffffffffffffffffffffffffffffffffffff16815260200191505060405180910390f35b34801561061057600080fd5b5061064f60048036038101908080359060200190929190803573ffffffffffffffffffffffffffffffffffffffff169060200190929190505050611598565b005b34801561065d57600080fd5b5061066661183d565b604051808273ffffffffffffffffffffffffffffffffffffffff1673ffffffffffffffffffffffffffffffffffffffff16815260200191505060405180910390f35b3480156106b457600080fd5b506106bd611867565b604051808215151515815260200191505060405180910390f35b3480156106e357600080fd5b5061070260048036038101908080359060200190929190505050611881565b005b34801561071057600080fd5b50610719611a72565b6040518082815260200191505060405180910390f35b6000600360008373ffffffffffffffffffffffffffffffffffffffff1673ffffffffffffffffffffffffffffffffffffffff16815260200190815260200160002060000160149054906101000a900460ff169050919050565b600060076000838152602001908152602001600020600001549050919050565b6000600954905090565b6000600460010160009054906101000a900473ffffffffffffffffffffffffffffffffffffffff16905090565b60006007600084815260200190815260200160002060040160008373ffffffffffffffffffffffffffffffffffffffff1673ffffffffffffffffffffffffffffffffffffffff16815260200190815260200160002060009054906101000a900460ff16905092915050565b60011515600460000160009054906101000a900460ff1615151415156108d8576040517f08c379a00000000000000000000000000000000000000000000000000000000081526004018080602001828103825260158152602001807f5468657265206973206e6f206368616c6c656e6765000000000000000000000081525060200191505060405180910390fd5b6001151560036000600460010160009054906101000a900473ffffffffffffffffffffffffffffffffffffffff1673ffffffffffffffffffffffffffffffffffffffff1673ffffffffffffffffffffffffffffffffffffffff16815260200190815260200160002060000160149054906101000a900460ff1615151415156109ee576040517f08c379a00000000000000000000000000000000000000000000000000000000081526004018080602001828103825260278152602001807f546865207573657220616c72656164792072656d6f7665642066726f6d20746881526020017f652067726f75700000000000000000000000000000000000000000000000000081525060400191505060405180910390fd5b60005460046002015443031115610a2e57610a2d600460010160009054906101000a900473ffffffffffffffffffffffffffffffffffffffff16611a7c565b5b565b600060076000838152602001908152602001600020600301549050919050565b60006007600083815260200190815260200160002060010160009054906101000a900473ffffffffffffffffffffffffffffffffffffffff169050919050565b60011515600460000160009054906101000a900460ff161515141515610b1e576040517f08c379a00000000000000000000000000000000000000000000000000000000081526004018080602001828103825260158152602001807f5468657265206973206e6f206368616c6c656e6765000000000000000000000081525060200191505060405180910390fd5b600460010160009054906101000a900473ffffffffffffffffffffffffffffffffffffffff1673ffffffffffffffffffffffffffffffffffffffff163373ffffffffffffffffffffffffffffffffffffffff16141515610c0c576040517f08c379a00000000000000000000000000000000000000000000000000000000081526004018080602001828103825260408152602001807f596f7520617265206e6f742074686520746172676574206f662074686520636881526020017f616c6c656e67652e20596f752063616e277420726573706f6e6420746f20697481525060400191505060405180910390fd5b60011515600360003373ffffffffffffffffffffffffffffffffffffffff1673ffffffffffffffffffffffffffffffffffffffff16815260200190815260200160002060000160149054906101000a900460ff161515141515610cfd576040517f08c379a00000000000000000000000000000000000000000000000000000000081526004018080602001828103825260288152602001807f596f752077616974656420746f6f206c6f6e6720746f20726573706f6e642e2081526020017f536f727279203a2800000000000000000000000000000000000000000000000081525060400191505060405180910390fd5b6000600360003373ffffffffffffffffffffffffffffffffffffffff1673ffffffffffffffffffffffffffffffffffffffff16815260200190815260200160002060000160156101000a81548160ff0219169083151502179055506000600460000160006101000a81548160ff021916908315150217905550600860009054906101000a900473ffffffffffffffffffffffffffffffffffffffff1673ffffffffffffffffffffffffffffffffffffffff166108fc67016345785d8a00009081150290604051600060405180830381858888f19350505050158015610de6573d6000803e3d6000fd5b50565b6000600460020154905090565b600060076000838152602001908152602001600020600201549050919050565b6000600360008373ffffffffffffffffffffffffffffffffffffffff1673ffffffffffffffffffffffffffffffffffffffff168152602001908152602001600020600101549050919050565b6000600360003373ffffffffffffffffffffffffffffffffffffffff1673ffffffffffffffffffffffffffffffffffffffff16815260200190815260200160002060000160009054906101000a900473ffffffffffffffffffffffffffffffffffffffff1673ffffffffffffffffffffffffffffffffffffffff1614151515610f53576040517f08c379a000000000000000000000000000000000000000000000000000000000815260040180806020018281038252601d8152602001807f596f7520646f6e27742062656c6f6e6720746f207468652067726f757000000081525060200191505060405180910390fd5b60001515600460000160009054906101000a900460ff161515141515611007576040517f08c379a00000000000000000000000000000000000000000000000000000000081526004018080602001828103825260268152602001807f546865726520697320616c72656164792061207075626c69736865642063686181526020017f6c6c656e6765000000000000000000000000000000000000000000000000000081525060400191505060405180910390fd5b67016345785d8a000034101515156110ad576040517f08c379a000000000000000000000000000000000000000000000000000000000815260040180806020018281038252602e8152602001807f596f7520646f6e2774206861766520656e6f756768206d6f6e657920746f207081526020017f6179207468652070656e616c747900000000000000000000000000000000000081525060400191505060405180910390fd5b6000600360008373ffffffffffffffffffffffffffffffffffffffff1673ffffffffffffffffffffffffffffffffffffffff16815260200190815260200160002060000160009054906101000a900473ffffffffffffffffffffffffffffffffffffffff1673ffffffffffffffffffffffffffffffffffffffff16141515156111c4576040517f08c379a00000000000000000000000000000000000000000000000000000000081526004018080602001828103825260278152602001807f596f75722074617267657420646f65736e27742062656c6f6e6720746f20746881526020017f652067726f75700000000000000000000000000000000000000000000000000081525060400191505060405180910390fd5b600154600360003373ffffffffffffffffffffffffffffffffffffffff1673ffffffffffffffffffffffffffffffffffffffff168152602001908152602001600020600101544303101515156112a8576040517f08c379a00000000000000000000000000000000000000000000000000000000081526004018080602001828103825260358152602001807f596f752061726520626c6f636b65642066726f6d2073656e64696e672061206381526020017f68616c6c656e67652e20706c656173652077616974000000000000000000000081525060400191505060405180910390fd5b6080604051908101604052806001151581526020013373ffffffffffffffffffffffffffffffffffffffff1681526020018273ffffffffffffffffffffffffffffffffffffffff16815260200143815250600460008201518160000160006101000a81548160ff02191690831515021790555060208201518160000160016101000a81548173ffffffffffffffffffffffffffffffffffffffff021916908373ffffffffffffffffffffffffffffffffffffffff16021790555060408201518160010160006101000a81548173ffffffffffffffffffffffffffffffffffffffff021916908373ffffffffffffffffffffffffffffffffffffffff1602179055506060820151816002015590505043600360003373ffffffffffffffffffffffffffffffffffffffff1673ffffffffffffffffffffffffffffffffffffffff168152602001908152602001600020600101819055506001600360008373ffffffffffffffffffffffffffffffffffffffff1673ffffffffffffffffffffffffffffffffffffffff16815260200190815260200160002060000160156101000a81548160ff02191690831515021790555050565b8073ffffffffffffffffffffffffffffffffffffffff166108fc839081150290604051600060405180830381858888f193505050501580156114a1573d6000803e3d6000fd5b505050565b6000600460000160019054906101000a900473ffffffffffffffffffffffffffffffffffffffff16905090565b6000600360008373ffffffffffffffffffffffffffffffffffffffff1673ffffffffffffffffffffffffffffffffffffffff16815260200190815260200160002060000160159054906101000a900460ff169050919050565b6000600360008373ffffffffffffffffffffffffffffffffffffffff1673ffffffffffffffffffffffffffffffffffffffff16815260200190815260200160002060000160009054906101000a900473ffffffffffffffffffffffffffffffffffffffff169050919050565b60011515600360003373ffffffffffffffffffffffffffffffffffffffff1673ffffffffffffffffffffffffffffffffffffffff16815260200190815260200160002060000160149054906101000a900460ff161515141515611663576040517f08c379a000000000000000000000000000000000000000000000000000000000815260040180806020018281038252601d8152602001807f596f7520646f6e27742062656c6f6e6720746f207468652067726f757000000081525060200191505060405180910390fd5b600082111515611701576040517f08c379a00000000000000000000000000000000000000000000000000000000081526004018080602001828103825260218152602001807f506c656173652061736b20666f72206120706f7373697469766520616d6f756e81526020017f740000000000000000000000000000000000000000000000000000000000000081525060400191505060405180910390fd5b60806040519081016040528060095481526020018273ffffffffffffffffffffffffffffffffffffffff16815260200183815260200160018152506007600060095481526020019081526020016000206000820151816000015560208201518160010160006101000a81548173ffffffffffffffffffffffffffffffffffffffff021916908373ffffffffffffffffffffffffffffffffffffffff1602179055506040820151816002015560608201518160030155905050600160076000600954815260200190815260200160002060040160003373ffffffffffffffffffffffffffffffffffffffff1673ffffffffffffffffffffffffffffffffffffffff16815260200190815260200160002060006101000a81548160ff0219169083151502179055506009600081548092919060010191905055505050565b6000600860009054906101000a900473ffffffffffffffffffffffffffffffffffffffff16905090565b6000600460000160009054906101000a900460ff16905090565b600060011515600360003373ffffffffffffffffffffffffffffffffffffffff1673ffffffffffffffffffffffffffffffffffffffff16815260200190815260200160002060000160149054906101000a900460ff16151514151561194e576040517f08c379a000000000000000000000000000000000000000000000000000000000815260040180806020018281038252601d8152602001807f596f7520646f6e27742062656c6f6e6720746f207468652067726f757000000081525060200191505060405180910390fd5b600760008381526020019081526020016000209050600015158160040160003373ffffffffffffffffffffffffffffffffffffffff1673ffffffffffffffffffffffffffffffffffffffff16815260200190815260200160002060009054906101000a900460ff1615151415611a6e5760018160040160003373ffffffffffffffffffffffffffffffffffffffff1673ffffffffffffffffffffffffffffffffffffffff16815260200190815260200160002060006101000a81548160ff021916908315150217905550806003016000815480929190600101919050555060025481600301541415611a6d57611a6c81600201548260010160009054906101000a900473ffffffffffffffffffffffffffffffffffffffff1661145b565b5b5b5050565b6000600254905090565b6000600254111515611a8a57fe5b6000600360008373ffffffffffffffffffffffffffffffffffffffff1673ffffffffffffffffffffffffffffffffffffffff16815260200190815260200160002060000160146101000a81548160ff02191690831515021790555060026000815480929190600190039190505550600060036000600460000160019054906101000a900473ffffffffffffffffffffffffffffffffffffffff1673ffffffffffffffffffffffffffffffffffffffff1673ffffffffffffffffffffffffffffffffffffffff1681526020019081526020016000206001018190555060006002541415611bf157600860009054906101000a900473ffffffffffffffffffffffffffffffffffffffff1673ffffffffffffffffffffffffffffffffffffffff166108fc3073ffffffffffffffffffffffffffffffffffffffff16319081150290604051600060405180830381858888f19350505050158015611bef573d6000803e3d6000fd5b505b505600a165627a7a72305820a5913eec1f418d85b2d629b021217cd0095e4964be8025aeb8abf585407feeae0029a165627a7a723058206e5978bd958e851e78fb8db6da0dda40c623d1cf71f59470c03016ebe53459c50029",
  "source": "// Version of solidity compiler this program was written for\npragma solidity ^0.4.24;\n\nimport \"./KofNMultisig.sol\";\n\n//-------------------------- MultisigWallet Contract -------------------------- \ncontract MultisigWallet {\n    \n    event ContractCreated(address newAddress);\n\n    mapping(address => address) public groups;\n    \n    //constructor() \n    //public\n    //{\n        \n    //}\n    \n    function addGroup(address[] wallets)\n\tpublic\n\treturns (address)\n\t{\n\t    KofNMultisig newContract = new KofNMultisig(wallets);\n\t    groups[msg.sender] = newContract;\n\t    return newContract;\n\t}\n\n}",
  "sourcePath": "/home/projectb/KofN/contracts/MultisigWallet.sol",
  "compiler": {
    "name": "solc",
    "version": "0.4.24+commit.e67f0147.Emscripten.clang"
  },
  "schemaVersion": "2.0.0",
  "updatedAt": "2018-06-12T11:17:47.235Z"
}